:020000040000FA
:10000000605800202D010000310100003301000084
:1000100000000000000000000000000000000000E0
:10002000000000000000000000000000350100009A
:10003000000000000000000037010000390100004E
:100040003B0100003B0100003B0100003B010000C0
:100050003B0100003B0100003B0100003B010000B0
:100060003B0100003B0100003B0100003B010000A0
:100070003B0100003B0100003B0100003B01000090
:100080003B0100003B0100003B0100003B01000080
:100090003B0100003B0100003B0100003B01000070
:1000A0003B01000000F002F800F030F80CA030C86E
:1000B000083824182D18A246671EAB4654465D46E4
:1000C000AC4201D100F022F87E460F3E0FCCB6467E
:1000D0000126334200D0FB1AA246AB4633431847F1
:1000E0000C0600001C06000000230024002500264A
:1000F000103A01D378C1FBD8520700D330C100D5E4
:100100000B6070471FB51FBD10B510BD00F027F87C
:100110001146FFF7F7FF00F093F800F03FF803B443
:10012000FFF7F2FF03BC00F045F800000648004767
:10013000FEE7FEE7FEE7FEE7FEE7FEE703480449C9
:10014000024A044B70470000A50000006000002038
:100150006058002060000020704770477047754667
:1001600000F024F8AE46050069465346C008C000BA
:10017000854618B020B5FFF7E1FF60BC00274908AD
:10018000B6460026C0C5C0C5C0C5C0C5C0C5C0C52F
:10019000C0C5C0C5403D49008D46704710B50446F6
:1001A000C046C0462046FFF7BAFF10BD0048704762
:1001B0000000002001491820ABBEFEE72600020027
:1001C0007047000000BF1249497880221140002981
:1001D000F9D10F4A916000BF0D4949788022114042
:1001E0000029F9D10A49496852021140520189187F
:1001F00002021F231B021A401143054A516000BF2F
:1002000003494978802211400029F9D17047000044
:10021000000C0040084880690821084306498861AD
:1002200001200649087000BF04480078C007C00FCD
:100230000028F9D17047000000040040000C004085
:10024000A2B00A202090FF211E91FE2200211C92C4
:100250001D91FE491A911B910021189119910121BC
:100260000906FB4A17921691FA4A00211492159139
:1002700012911391002210921192209801020E9275
:100280000F911E98020400210D920C911C9A130EDE
:100290001D990802184312020A920B901898020C3A
:1002A000199909040A430004099208900F9C129AB4
:1002B0000E991398531860410D9A0C995B180146DA
:1002C0005141099A08981B185141E34A1B98104064
:1002D000020C00209A184141129213910B9C109A23
:1002E0000A991198531860410025ED431A9A2A4043
:1002F0001B992940140C0904214312049A184841FF
:1003000010921190FFF786FF0620FFF75BFF012197
:100310000903D2488160D248006A04210843D049C9
:10032000086200BFCF484078C0090028FAD1CE4803
:10033000006801210843CC49086000BFCA48007822
:10034000C007C00F0028F9D100BFC74800680221CC
:1003500008400028F9D100BFC248407880210840F9
:100360000028F9D1C148BF49488000BFBD48407846
:10037000C009802108400028F8D1B84840380079E9
:1003800040084000401CB549403908710321B3487A
:10039000403841713321B1485038817000BFB248B4
:1003A000008AC00BAF494978C90908430028F6D133
:1003B000AF48AD49086000BFAB48008AC00BA949EF
:1003C0004978C90908430028F6D1AA48A6494881B6
:1003D00003200004486000BFA348008AC00BA14965
:1003E0004978C90908430028F6D19F4800680221CE
:1003F00008439D49086000BF9B48008AC00B99498B
:100400004978C90908430028F6D10690079066E1AB
:100410000025189A6A40199B6B401A4301D10124A8
:1004200000E00024944E0025069B079A9B1BAA41DE
:1004300001D2012200E000221440002C1AD0002436
:10044000079B069A521C5C4107940692FF24E443E2
:10045000129B9BB2139A144013941293069A150C94
:10046000079B1C042C431504139B129AAA185C4189
:10047000139412920023049305937F4C139B234003
:1004800019461298FF25ED43109B2B40119C1194A7
:100490001093002211E0C3B20024059E049D5F1951
:1004A000234673412546FCB22B40049405930D0668
:1004B000030A2B43090A1846521C082AEBDBFF25C6
:1004C000ED43109A2A401046119900220FE0C3B262
:1004D0000024059E049D5B197441DBB20024059441
:1004E00004930D06030A2B43090A1846521C082AD6
:1004F000EDDB15991498002211E0C3B20024059E8B
:10050000049D5F19234673412546FCB22B40049499
:1005100005930D06030A2B43090A1846521C082AA4
:10052000EBDB179AD1B21698002211E0C3B2002477
:10053000059E049D5F19234673412546FCB22B405E
:10054000049405930D06030A2B43090A1846521C0E
:10055000082AEBDBFF250023059C049AAA1AA34175
:100560002A40002305930492059D109C119B049A38
:10057000A2186B411193109201231B03374AD361D8
:1005800000BF179B169A01930092002218E0FF24E7
:100590002406019B23401B0E0293009D2E0E019CFE
:1005A000230233432D02009501932F4C029B23839A
:1005B00000BF2D4B9B7B9B07DB0F002BF9D0521C00
:1005C000082AE4DB159B149A01930092002218E09C
:1005D000FF242406019B23401B0E0293009D2E0E38
:1005E000019C230233432D02009501931E4C029B74
:1005F000238300BF1C4B9B7B9B07DB0F002BF9D099
:10060000521C082AE4DB139B129A019300920022E9
:1006100018E0FF242406019B23401B0E0293009D3B
:100620002E0E019C230233432D02009501930E4CA4
:10063000029B238300BF0C4B9B7B9B07DB0F002B94
:10064000F9D0521C082AE4DB119B17E0F4F4F4F40F
:10065000101C007E00FEFF000000FFFF80440041F0
:1006600000040040000C0040000800420D40000063
:1006700004001040ADD80000FFFFFF00109A019366
:100680000092002218E0FF242406019B23401B0E49
:100690000293009D2E0E019C230233432D020095F0
:1006A00001930F4C029B238300BF0D4B9B7B9B0749
:1006B000DB0F002BF9D0521C082AE4DB094A01E0C9
:1006C0006423521E002AFBD100BF054A128AD20BB6
:1006D000054B5B78DB091A43002AF6D100BF97E689
:1006E000000800429F860100000C0040FC0600004C
:0C06F0000000002060580000E80000003E
:040000050000012DC9
:00000001FF
